S00E0000752D626F6F742E73726563C0
S31580800000140000EA14F09FE514F09FE514F09FE554
S3158080001014F09FE514F09FE514F09FE514F09FE5BA
S31580800020A00180800002808060028080C002808003
S315808000302003808080038080E0038080785634121D
S3158080004000008080442F0300442F030084700600C4
S31580800050DC840300DEC0AD0B290300EB00000FE1DA
S315808000601F00C0E3D30080E300F029E1B4D39FE58D
S3158080007007D0CDE30000A0E3FD0300EB0040A0E1C4
S315808000800150A0E10260A0E104D0A0E194004FE29B
S31580800090060050E10090A0032600000A0610A0E129
S315808000A060301FE5032080E00006B0E80006A1E806
S315808000B0020050E1FBFFFF3A80001FE5009046E09A
S315808000C06CA09FE500A08AE05C209FE5002082E00E
S315808000D058309FE5003083E0000092E5090080E09B
S315808000E0041092E5FF7001E2170057E30700000ACB
S315808000F0020057E30000000A060000EA2112A0E110
S3158080010001108AE0041091E5091081E0010000EA7F
S31580800110001090E5091081E0001080E5082082E2D9
S31580800120030052E1EBFFFF3A020000EA442F03000E
S315808001301C8403001C840300FC001FE5F8101FE567
S315808001400640A0E1040080E0041081E00020A0E366
S31580800150002080E5040080E2010050E1FBFFFF1A69
S31580800160150F07EE9A0F07EE950F07EE14009FE5A1
S315808001705E1F4FE201E080E009E08EE00500A0E1AD
S315808001800610A0E10EF0A0E1500F00000000A0E173
S315808001900000A0E10000A0E10000A0E10000A0E155
S315808001A054D11FE500E08DE500E04FE104E08DE568
S315808001B013D0A0E30DF069E10FE0A0E10EF0B0E18D
S315808001C048D04DE2FF1F8DE87C211FE50C0092E828
S315808001D048008DE234508DE20E10A0E10F0085E854
S315808001E00D00A0E1130500EB0000A0E10000A0E176
S315808001F00000A0E10000A0E10000A0E10000A0E1F5
S3158080020004D04DE200008DE5BC011FE500E080E56D
S3158080021000004FE104E080E500009DE504D08DE29A
S3158080022048D04DE2FF1F8DE8DC211FE50C0092E867
S3158080023048008DE234508DE20E10A0E10F0085E8F3
S315808002400D00A0E1030500EB0000A0E10000A0E125
S315808002500000A0E10000A0E10000A0E10000A0E194
S3158080026014D21FE500E08DE500E04FE104E08DE5E6
S3158080027013D0A0E30DF069E10FE0A0E10EF0B0E1CC
S3158080028048D04DE2FF1F8DE83C221FE50C0092E8A6
S3158080029048008DE234508DE20E10A0E10F0085E893
S315808002A00D00A0E1F30400EB0000A0E10000A0E1D6
S315808002B00000A0E10000A0E10000A0E10000A0E134
S315808002C074D21FE500E08DE500E04FE104E08DE526
S315808002D013D0A0E30DF069E10FE0A0E10EF0B0E16C
S315808002E048D04DE2FF1F8DE89C221FE50C0092E8E6
S315808002F048008DE234508DE20E10A0E10F0085E833
S315808003000D00A0E1E30400EB0000A0E10000A0E185
S315808003100000A0E10000A0E10000A0E10000A0E1D3
S31580800320D4D21FE500E08DE500E04FE104E08DE565
S3158080033013D0A0E30DF069E10FE0A0E10EF0B0E10B
S3158080034048D04DE2FF1F8DE8FC221FE50C0092E825
S3158080035048008DE234508DE20E10A0E10F0085E8D2
S315808003600D00A0E1D30400EB0000A0E10000A0E135
S315808003700000A0E10000A0E10000A0E10000A0E173
S3158080038034D31FE500E08DE500E04FE104E08DE5A4
S3158080039013D0A0E30DF069E10FE0A0E10EF0B0E1AB
S315808003A048D04DE2FF1F8DE85C231FE50C0092E864
S315808003B048008DE234508DE20E10A0E10F0085E872
S315808003C00D00A0E1CB0400EB0000A0E10000A0E1DD
S315808003D00000A0E10000A0E10000A0E10000A0E113
S315808003E094D31FE500E08DE500E04FE104E08DE5E4
S315808003F013D0A0E30DF069E10FE0A0E10EF0B0E14B
S3158080040048D04DE2FF1F8DE8BC231FE50C0092E8A3
S3158080041048008DE234508DE20E10A0E10F0085E811
S315808004200D00A0E1AB0400EB80B730400000A0E176
S315808004300000A0E10000A0E10000A0E10000A0E1B2
S31580800440F04E2DE930AF30EE0030A0E30350A0E1CE
S3158080045083C0A0E103208CE03A22A0E1072002E25B
S31580800460022042E2020052E32800008A10CF40EE4A
S31580800470102F30EEA4109FE5076002E2A0709FE502
S31580800480046086E2011002E0A111A0E1077002E01B
S31580800490A776A0E10020E0E3019081E20940A0E117
S315808004A0A440B0E1012082E2FCFFFF1A010019E13D
S315808004B001208212010050E3202062E20800001AA7
S315808004C011B28CE10740A0E114968BE1569F07EE2E
S315808004D0014054E2FBFFFF2A011051E2F7FFFF2A19
S315808004E0090000EA020050E30800001A11B28CE18C
S315808004F00740A0E114968BE15E9F07EE014054E2AF
S31580800500FBFFFF2A011051E2F7FFFF2A9A5F07EE71
S31580800510013083E2070053E3CCFFFF1AF08EBDE8FB
S31580800520F81F000000E0FF0FF8402DE9017042E2DD
S31580800530000017E10040A0E10150A0E10260A0E147
S315808005400700000A0420A0E14C009FE54C109FE53F
S31580800550014044E23B2200EB064084E0003066E2C4
S31580800560044003E0050017E10800000A0520A0E1A9
S315808005702C009FE524109FE5322200EB003066E256
S31580800580035005E0010000EA364F07EE064084E01E
S31580800590050054E1FBFFFF3AF880BDE8279682800C
S315808005A0E09582805A9682800030A0E3153F07EEE0
S315808005B0D53F07EE9A3F07EE953F07EE1EFF2FE168
S315808005C01EFF2FE11EFF2FE11EFF2FE108402DE940
S315808005D00200A0E399FFFFEB0840BDE8F9FFFFEA40
S315808005E01EFF2FE108402DE90100A0E393FFFFEB7A
S315808005F00840BDE8F9FFFFEA08402DE9EFFFFFEBF1
S31580800600F7FFFFEB0030A0E3173F08EE163F08EEBA
S31580800610153F08EE9A3F07EE953F07EE0880BDE8C6
S315808006201EFF2FE1102F30EE072002E20130A0E37B
S31580800630042082E21322A0E1003062E2003003E0EF
S31580800640010000EA3E3F07EE023083E0010053E17D
S31580800650FBFFFF3A0030A0E39A3F07EEEFFFFFEA09
S31580800660001081E0EEFFFFEA1EFF2FE138402DE982
S315808006700050A0E10140A0E1103F30EE073003E258
S315808006800120A0E3043083E21223A0E1A5FFFFEBE3
S315808006900030A0E39A3F07EE0500A0E10410A0E1B8
S315808006A03840BDE8EFFFFFEA1EFF2FE108402DE9C5
S315808006B08B0300EB610300EBBAFFFFEB730300EB68
S315808006C0C7FFFFEB0000A0E30880BDE8010050E291
S315808006D0FDFFFF1A1EFF2FE101C0A0E310402DE928
S315808006E01C22A0E1004090E501C042E21CC1C4E129
S315808006F013118CE1001080E51080BDE800C0A0E376
S3158080070010402DE901C08CE2004092E5004004E073
S31580800710010054E10300000A03005CE1F8FFFF1A40
S315808007200000A0E31080BDE80100A0E31080BDE852
S315808007300C109FE50C309FE5003081E50000A0E13C
S31580800740FEFFFFEA000FE0440100000038402DE9FB
S315808007500040A0E328309FE5404083E52B20A0E33E
S315808007600850A0E1382083E53C0093E514109FE58E
S31580800770BA9700FA300085E50400A0E1204088E53C
S315808007803880BDE800000448350C000008402DE91B
S31580800790FA1FA0E340309FE5930000E0AF9700FA10
S315808007A038209FE53C3092E50210A0E1070000EA00
S315808007B03C2091E5020053E10330E0810330629072
S315808007C0023083800330E081000083E00230A0E144
S315808007D0000050E3F5FFFFCA0880BDE8350C0000B5
S315808007E00000044808402DE92C309FE53C0093E5C5
S315808007F028109FE5999700FA302098E5201098E593
S31580800800302098E5002062E0012082E0202088E583
S31580800810300088E5200098E50880BDE8000004481F
S31580800820350C000010402DE90040A0E1ECFFFFEB85
S31580800830000064E01080BDE808402DE9E8FFFFEB0A
S315808008400010A0E30880BDE8FA0FA0E31EFF2FE129
S31580800850F0442DE90060A0E10150A0E10240A0E1D2
S3158080086000A096E50410A0E10A00A0E17B9700FA3B
S31580800870940003E00070A0E10A0053E1F084BD1883
S3158080088000A095E50410A0E10A00A0E1739700FA24
S31580800890940000E00A0050E1F084BD18007086E57F
S315808008A00410A0E1000095E56C9700FA000085E5CC
S315808008B0EAFFFFEA70402DE90050A0E10140A0E107
S315808008C00260A0E10220A0E3E0FFFFEB0500A0E14B
S315808008D00410A0E10320A0E3DCFFFFEB0500A0E18C
S315808008E00410A0E10520A0E3D8FFFFEB0500A0E17E
S315808008F00410A0E10720A0E3D4FFFFEB0500A0E170
S315808009000410A0E10B20A0E3D0FFFFEB0500A0E15F
S315808009100410A0E10D20A0E3CCFFFFEB0500A0E151
S315808009200410A0E11120A0E3C8FFFFEB060000EAD7
S31580800930003095E5A330A0E1003085E5003094E570
S31580800940013083E2A330A0E1003084E5003094E575
S31580800950060053E1F5FFFF8A7080BDE8F8402DE9F7
S315808009600050A0E10140A0E10260A0E10370A0E117
S315808009700030A0E3FA0FA0E3183081E552FFFFEB49
S31580800980003095E5003084E5043095E5043084E5D3
S31580800990083095E5083084E50C3095E50C3084E5A3
S315808009A0103095E5103084E5143095E5266CA0E10D
S315808009B00F7007E2143084E53F6006E2406086E38C
S315808009C0077486E17D0EA0E3187084E5F840BDE863
S315808009D03DFFFFEA70402DE90532A0E360409FE548
S315808009E0003084E5003094E50820A0E3102083E57C
S315808009F0003094E5012CA0E3182083E5003094E54F
S31580800A00022CA0E31C2083E5003094E51220A0E32D
S31580800A10502083E5003094E50050A0E3FA0FA0E3F0
S31580800A20785083E528FFFFEB001094E50223A0E34E
S31580800A3010009FE50530A0E1601081E27040BDE83E
S31580800A40C5FFFFEA442F8380E06B828008309FE574
S31580800A50000693E5200EA0E11EFF2FE10000E14411
S31580800A600C309FE5000693E50002A0E12008A0E116
S31580800A701EFF2FE10000E1440000A0E31EFF2FE16E
S31580800A800C309FE5400093E5070C00E22004A0E14E
S31580800A901EFF2FE10000E14408309FE5400093E58A
S31580800AA01F0000E21EFF2FE10000E14470402DE927
S31580800AB00250D0E50160D0E5B0C19FE50558A0E140
S31580800AC0065485E10060D0E500409CE5065085E1CE
S31580800AD00360D0E5065C85E1005484E50650D0E568
S31580800AE00560D0E500409CE50558A0E1065485E187
S31580800AF00460D0E5065085E10760D0E5065C85E137
S31580800B000D0051E3045484E53300009A0A50D0E501
S31580800B100960D0E500409CE50558A0E1065485E152
S31580800B200860D0E5065085E10B60D0E5065C85E1FE
S31580800B30085484E50E50D0E50D60D0E500409CE5F4
S31580800B400558A0E1065485E10C60D0E5065085E124
S31580800B500F60D0E5065C85E11A0051E30C5484E58C
S31580800B601D00009A1240D0E51150D0E500109CE51A
S31580800B700448A0E1054484E11050D0E5054084E135
S31580800B801350D0E5054C84E1104481E51640D0E5CC
S31580800B901550D0E500109CE50448A0E1054484E129
S31580800BA01450D0E5054084E11750D0E5054C84E1AA
S31580800BB0144481E500109CE51AC0D0E51940D0E543
S31580800BC00CC8A0E104C48CE11840D0E51B00D0E5B8
S31580800BD004C08CE1000C8CE1180481E58C109FE5C3
S31580800BE0000091E518C490E501C88CE3000091E58A
S31580800BF018C480E500C091E570009FE518C09CE52B
S31580800C0001001CE3FAFFFF0A001090E518C091E509
S31580800C1001C08CE3001090E518C081E5001891E54D
S31580800C20010C11E30F00000A001090E5001891E591
S31580800C301F1001E2001082E50010A0E3040000EAA4
S31580800C4000C090E5224E81E204C19CE701C183E722
S31580800C50011081E200C092E50C0051E1F7FFFF3A76
S31580800C600000A0E37080BDE80000E0E37080BDE80E
S31580800C70482F8380030000E27F1680E30F1881E38C
S31580800C802C309FE5002093E5201082E51C1092E5AC
S31580800C90011081E3002093E51C1082E5802092E597
S31580800CA00120C2E3003093E50000A0E3802083E545
S31580800CB01EFF2FE1482F838024309FE5002093E517
S31580800CC0101092E5021081E3002093E5101082E5F2
S31580800CD0002093E5142092E5010012E3FBFFFF0AD2
S31580800CE01EFF2FE1482F838008209FE508309FE5EF
S31580800CF0002083E5EFFFFFEA00000848482F8380C5
S31580800D00000080801EFF2FE130509FE50020A0E309
S31580800D10002085E5002095E5032812E2000052E355
S31580800D20FBFFFF1A1C509FE51E26A0E3002085E569
S31580800D300C509FE51E26E0E3002085E50EF0A0E1BD
S31580800D40AC00E04434C104483CC104480C60A0E156
S31580800D5044209FE55C301FE5034042E004004FE07D
S31580800D602CD09FE52C509FE5025045E0050040E061
S31580800D7000A0A0E3030110E2020150E30100001A03
S31580800D8001A0A0E3FFFFFFEA0A00A0E1F69200EB54
S31580800D9006F0A0E1FCB73040640D80804C0D8080E9
S31580800DA0880D8080BF5E2DE9300F30EE073410E2EB
S31580800DB0A33BA0E11B00000A00A0A0E3AA208AE052
S31580800DC03012A0E1071001E2020051E3120000BA5E
S31580800DD010AF40EE0020A0E3952F07EE101F30EE77
S31580800DE0072001E2042082E270409FE5A14114E061
S31580800DF0145F6FE168709FE5A17617E00490A0E1AB
S31580800E0019B58AE117B28BE156BF07EE019059E298
S31580800E10FAFFFFAA017057E2F7FFFFAA02A08AE2D3
S31580800E200A0053E1E4FFFFCA00A0A0E310AF40EEC2
S31580800E3095AF07EEBF9EBDE807402DE9303F11EEA6
S31580800E40023083E3303F01EE0E80BDE807402DE916
S31580800E50303F11EE0230C3E3303F01EE0E80BDE8B5
S31580800E60FF030000FF7F000008402DE91C009FE5FE
S31580800E70E81F00EB0110A0E314009FE57A3A00EBAF
S31580800E8010009FE5E31F00EB0000A0E30880BDE82B
S31580800E908C968280A086010078E5828008402DE944
S31580800EA00C109FE50C009FE5E61F00EB0000A0E399
S31580800EB00880BDE8886D82809496828010402DE976
S31580800EC040D04DE23C009FE50D10A0E14020A0E39C
S31580800ED0D81A00EB000050E30840A0E1040000DA55
S31580800EE00D00A0E10010A0E30A20A0E3F87600EBD5
S31580800EF0000000EA10009FE5080084E50000A0E37A
S31580800F0040D08DE21080BDE89B96828000C2010031
S31580800F101EFF2FE11EFF2FE11EFF2FE11EFF2FE117
S31580800F201EFF2FE11EFF2FE11EFF2FE11EFF2FE107
S31580800F301EFF2FE1002098E50211A0E3101082E5C4
S31580800F40002098E5383098E5143082E51EFF2FE141
S31580800F500080A0E108402DE9004098E50150A0E19D
S31580800F60043098E5013083E3043088E5C4309FE51A
S31580800F70002093E5C0309FE5002083E5F60000EBF6
S31580800F80539300EB0319A0E3030945E2602000EB4D
S31580800F90A8009FE59F1F00EBA74300EBA0009FE57D
S31580800FA09C1F00EB0400A0E1454100EBE72400EBA9
S31580800FB0004098E58C009FE5D21A00EB3F7300EBEA
S31580800FC0040084E5483500EBBA2500EB032000EB6E
S31580800FD0599300EB3A0100EB400100EB68009FE5F6
S31580800FE0C81A00EB000050E30400000A0010A0E35A
S31580800FF01020A0E3B67600EB50309FE5000083E5B5
S315808010004C009FE5BF1A00EB001050E20200000AF8
S3158080101040009FE58020A0E39F8A00EB4A9300EB07
S3158080102034009FE57B1F00EB000098E5468600EB49
S31580801030DA2F00EBFDFFFFEA500080804C2F838003
S31580801040A4968280AC968280B4968280BB9682807B
S31580801050E00B8380C49682809C658680CD968280D4
S3158080106008402DE904009FE56A1F00EBFEFFFFEA3A
S31580801070D596828080402DE9E4809FE57820A0E324
S315808010800800A0E10010A0E3D8409FE5A37400EBA0
S31580801090D4209FE5002092E53C2088E5030000EA85
S315808010A036FF2FE1000050E30000000AEBFFFFEBE4
S315808010B00460B4E5000056E3F8FFFF1A384098E5EF
S315808010C0024184E2014944E22448A0E10448A0E147
S315808010D04C4088E53C2098E5044062E0FF4EC4E3BE
S315808010E00F40C4E3030944E2905040E2182040E276
S315808010F0002088E5A07040E2405088E5002098E591
S31580801100083098E5003082E5109200EB003098E553
S3158080111058009FE514A093E53E1F00EB0610A0E1E2
S315808011204C209FE50A00A0E1CD6D00EB44209FE531
S315808011300810A0E1344088E50500A0E1447088E588
S31580801140002092E5042062E0482088E57820A0E3AC
S31580801150967400EB0700A0E10510A0E10420A0E1D1
S31580801160C5FBFFEB80B73040040983804C008080CC
S31580801170FF968280B6D882804000808000C098E5C5
S31580801180003098E50D10A0E1011B41E2142093E523
S3158080119010309CE5032082E0022061E0307200EA14
S315808011A0F8462DE90040A0E1005098E50370A0E163
S315808011B070019FE5086095E5521A00EB8040D4E384
S315808011C00090A0E15500001A5C019FE54D1A00EB66
S315808011D0000050E30600000A0410A0E11020A0E37E
S315808011E03B7600EB0060A0E140019FE50610A0E120
S315808011F0141F00EB0F00A0E3672F00EB0C4095E5F2
S315808012000500A0E328319FE50020A0E360A097E554
S31580801210000059E3082084E5090084E814319FE5BD
S315808012200C2084E5102084E5242084E2183084E52F
S315808012300430A0E3143084E5103095E5203084E5D1
S31580801240143095E51C3084E5EC309FE5002083E5FD
S315808012501600000A0930A0E10390A0E10120D3E4C2
S31580801260200052E3FBFFFF0A000052E30F00000AD2
S31580801270C8309FE50900A0E1283084E5947300EBAF
S315808012800D0080E20910A0E12001A0E1240084E520
S31580801290A4409FE5000094E5080080E2317300EB6E
S315808012A0003094E5002093E5023183E0003084E5C8
S315808012B0642097E5000052E30C00000A680097E5F9
S315808012C0000050E30900000A6C109FE504C0A0E38B
S315808012D06CE09FE5003091E5082083E5002062E0A0
S315808012E0005083E80C2083E5103083E2003081E56E
S315808012F044309FE50040A0E348009FE5003093E5B9
S31580801300044083E5004083E5CE1E00EBE6FCFFEBE0
S315808013100400A0E10610A0E10C2095E53AFF2FE1BC
S315808013200100A0E3F886BDE80797828010978280C7
S31580801330179782800100415402004154502F838048
S3158080134009004154050042543B9782801EFF2FE15D
S315808013500000A0E30010E0E3C0FCFFEA00009FE508
S31580801360AC1E00EA5297828008D04DE20030A0E31E
S31580801370020000EA0000A0E104309DE5013083E2AE
S3158080138004308DE504309DE5630053E3F8FFFFDA92
S3158080139008D08DE21EFF2FE11EFF2FE110402DE940
S315808013A04C4098E593FCFFEB0030A0E3032AA0E154
S315808013B0C12E82E3022082E3032184E7013083E227
S315808013C0010A53E3F8FFFF1A4C2098E5000098E560
S315808013D0101090E5140090E5213AA0E1001081E09C
S315808013E0211AA0E1032182E0040000EA030AA0E139
S315808013F0013083E2C10E80E30E0080E3040082E444
S31580801400010053E1F8FFFF3A104F02EE0030E0E32F
S31580801410103F03EED3FFFFEB104F11EE013084E3D4
S31580801420103F01EE1080BDE810402DE9CDFFFFEB27
S31580801430104F11EE013A84E3103F01EE1080BDE833
S3158080144010402DE9C7FFFFEB104F11EE013AC4E340
S31580801450103F01EE1080BDE8100F11EE2006A0E14E
S31580801460010000E21EFF2FE1103F11EE010013E321
S3158080147010402DE90000001AC7FFFFEBB9FFFFEB94
S31580801480104F11EE043084E3103F01EE1080BDE8EA
S3158080149010402DE9104F11EE040014E31080BD0832
S315808014A049FCFFEBAFFFFFEB0540C4E3104F01EE35
S315808014B01080BDE8100F11EE2001A0E1010000E24E
S315808014C01EFF2FE1402098E50000A0E308309FE5CD
S315808014D0082082E2002083E51EFF2FE15400808071
S315808014E01EFF2FE10000A0E31EFF2FE108402DE9BB
S315808014F000009FE5C27700EB6F97828030402DE9B0
S315808015008CD04DE20040A0E100119FE508008DE27D
S315808015108020A0E3A57300EB303094E53C1094E501
S31580801520382094E500308DE52C3094E5E0009FE509
S31580801530405094E504308DE5343094E5411E00EBCF
S31580801540281094E5242094E5203094E5C4009FE516
S315808015503C1E00EB103094E51C1094E5182094E531
S3158080156000308DE5B0009FE5143094E5351E00EBA4
S31580801570003094E50C1094E5082094E500308DE5E4
S3158080158098009FE5043094E52E1E00EB010115E35B
S315808015908C009FE57A20A0035A20A013020215E3CF
S315808015A06330A0034330A013010215E37610A003B5
S315808015B05610A013000055E300108DE56E10A0A391
S315808015C04E10A0B31F1E00EB403094E588008DE25C
S315808015D050C09FE550209FE5800013E30C10A0014A
S315808015E00210A011400013E31F3003E20C20A001FB
S315808015F0033180E034009FE500008DE530009FE573
S31580801600803013E50F1E00EB8CD08DE23080BDE8F4
S31580801610FC6B828082978280C7978280EB9782805C
S315808016201B9882804B98828012FE8280819A8280EB
S315808016304BB682805B98828008402DE90040A0E18D
S315808016400C009FE5FF1D00EB0400A0E1AAFFFFEBE5
S31580801650A5FFFFEB7A98828008402DE90040A0E1C3
S315808016600C009FE5F71D00EB0400A0E1A2FFFFEBD5
S315808016709DFFFFEB9198828008402DE90040A0E194
S315808016800C009FE5EF1D00EB0400A0E19AFFFFEBC5
S3158080169095FFFFEBA598828008402DE90040A0E168
S315808016A00C009FE5E71D00EB0400A0E192FFFFEBB5
S315808016B08DFFFFEBB598828008402DE90040A0E140
S315808016C00C009FE5DF1D00EB0400A0E18AFFFFEBA5
S315808016D085FFFFEBC198828008402DE90040A0E11C
S315808016E00C009FE5D71D00EB0400A0E182FFFFEB95
S315808016F07DFFFFEBCB98828008402DE90040A0E1FA
S315808017000C009FE5CF1D00EB0400A0E17AFFFFEB84
S3158080171075FFFFEBD098828008402DE91C009FE5FD
S31580801720BC1D00EB18009FE58D7300EB6CFFFFEB13
S315808017300000A0E3FDFBFFEB0000A0E30880BDE88E
S31580801740CF99828050C300000030A0E10120A0E1C3
S3158080175004009FE50310A0E1BA1D00EADE9982802D
S315808017601F402DE9004098E5CC009FE5081094E560
S31580801770F4FFFFEB0C1094E5C0009FE5F1FFFFEBD3
S31580801780BC009FE50010A0E3EEFFFFEB101094E510
S31580801790B0009FE5EBFFFFEB141094E5A8009FE572
S315808017A0E8FFFFEBA4109FE504008DE2ED7100EB6E
S315808017B004008DE2D31800EB000050E390209FE573
S315808017C004108DE20020A01188009FE59D1D00EB0E
S315808017D0041084E280009FE59A1D00EB001094E55A
S315808017E078009FE5971D00EB74009FE54C1098E587
S315808017F0D4FFFFEB6C009FE5341098E5D1FFFFEBBB
S3158080180064009FE5481098E5CEFFFFEB5C009FE57E
S31580801810401098E5CBFFFFEB54009FE5441098E598
S31580801820C8FFFFEB4C009FE5181098E5C5FFFFEBDE
S315808018300000A0E310D08DE21080BDE8F899828008
S31580801840049A8280109A82801A9A8280239A8280D1
S315808018502B9A8280EE998280339A82803E9A828089
S31580801860529A8280689A8280719A82807B9A82805C
S31580801870859A82808C9A8280969A828008402DE989
S315808018800030A0E10100A0E10210A0E133FF2FE14A
S315808018900880BDE8010052E370402DE90250A0E146
S315808018A0010000CA7040BDE8361C00EA0340A0E112
S315808018B01020A0E30400B4E50010A0E3847400EB5C
S315808018C00060A0E130009FE50610A0E15D1D00EB81
S315808018D00420A0E1011045E20600A0E1E6FFFFEBCF
S315808018E0004090E20010A0E10140A0130C009FE52B
S315808018F0541D00EB0400A0E17080BDE8C29A82800E
S31580801900EA9A8280003CA0E1FF2C00E2203C83E1C1
S31580801910FF0800E2023483E1200483E11EFF2FE189
S31580801920000090E5F6FFFFEA38402DE90040A0E10F
S315808019300410A0E18C009FE5421D00EB0400A0E12D
S31580801940792C00EB010050E30050A0E178009F15D0
S315808019501900001A74009FE52E1D00EB0400A0E19B
S31580801960EEFFFFEB68309FE5030050E164009F1532
S315808019701100001A0400A0E1282B00EB000050E340
S3158080198054009F050C00000A0400A0E1DC2B00EBCC
S3158080199048009FE51F1D00EB0400A0E1332B00EB80
S315808019A0000050E338009F050300000A34009FE55D
S315808019B0181D00EB0000A0E33880BDE8151D00EB04
S315808019C00100A0E33880BDE8B19B8280469C8280FE
S315808019D0D29B828056190527E99B8280FE9B8280D6
S315808019E0169C8280319C8280429C82800C0090E50D
S315808019F0C3FFFFEA08402DE914009FE5411800EBFC
S31580801A000310A0E3262700EB000090E20100A013DC
S31580801A100880BDE85D9C8280010052E3F8402DE914
S31580801A200260A0E10370A0C10040A0C30150A0C3A2
S31580801A30030000CA38309FE5000093E5F840BDE892
S31580801A40B8FFFFEA0010A0E31020A0E30400B7E50A
S31580801A50015085E21E7400EBB2FFFFEB000050E37D
S31580801A600140A013060055E1F5FFFF1A0400A0E1AE
S31580801A70F880BDE8E00B83808020D0E310402DE99C
S31580801A800700001A604093E51C009FE50410A0E1E2
S31580801A90EC1C00EB0F00A0E33F2D00EB000098E5E7
S31580801AA034FF2FE10100A0E31080BDE8659C828031
S31580801AB0FF4E2DE903A0A0E18030D0E30190A0E124
S31580801AC002B0A0E13F00001A2230DAE500709AE584
S31580801AD0040053E30100000A0070A0E3070000EAD7
S31580801AE00C308DE20700A0E10110A0E308208DE292
S31580801AF0F52A00EB0C309DE5000053E3F5FFFF0AE5
S31580801B00020059E31F0000DA0050A0E30240A0E300
S31580801B1004019BE7014084E26D7100EB090054E18A
S31580801B20010080E2005085E0F8FFFF1A0500A0E101
S31580801B3008B08BE23E1E00EB0260A0E30050A0E17D
S31580801B400040A0E32030A0E3020000EA020056E3D2
S31580801B500430C5170140841200109BE5040085E09F
S31580801B6004308DE5016086E2FE7000EB04009BE424
S31580801B70577100EB090056E1004084E004309DE512
S31580801B80F1FFFF1A040000EA44009FE5DD1700EBB1
S31580801B90000050E33C509FE50050A01160409AE5DC
S31580801BA034009FE50410A0E1A61C00EB0F00A0E3A3
S31580801BB0F92C00EB0710A0E1000098E514209FE542
S31580801BC00530A0E134FF2FE10100A0E310D08DE243
S31580801BD0F08EBDE8079782804BB682809E9C8280FD
S31580801BE0F34E2DE900A0A0E12C70DDE501B0A0E1E7
S31580801BF00260A0E13000DDE528409DE534509DE51A
S31580801C0038909DE504308DE5312B00EB000057E35D
S31580801C100010A0E10200000A010057E32600001AA6
S31580801C20120000EA0A0054E1060054110200001AEC
S31580801C30F0009FE5831C00EB060000EAE8009FE544
S31580801C40801C00EB0400A0E10610A0E104209DE545
S31580801C500138A0E3F82A00EB04309DE5CC009FE5AF
S31580801C60033084E0003085E56A1C00EB170000EACB
S31580801C70BC009FE5731C00EB04308DE20400A0E17C
S31580801C800215A0E30620A0E1EB6B00EB000050E399
S31580801C9004309D0503308400003085050B00000AE2
S31580801CA090009FE55B1C00EB000059E31A00000A58
S31580801CB00500E0E3B82C00EB170000EA78009FE58A
S31580801CC00710A0E15F1C00EB0200E0E3140000EA4D
S31580801CD0001095E50400A0E1011064E00111A0E107
S31580801CE05EFAFFEB44009FE54A1C00EB000059E357
S31580801CF00100000A0700A0E3A72C00EB0B0054E14B
S31580801D000000A0230600002A003095E50A0053E1F2
S31580801D100000A0930100E083010000EA0000E0E378
S31580801D20FFFFFFEAFC8EBDE8E79C8280F69C82807E
S31580801D30429C8280099D8280229D8280739D828042
S31580801D40F34E2DE90170A0E124439FE50010A0E3C6
S31580801D500090A0E102A0A0E14B2FA0E30400A0E1C7
S31580801D606E7100EB0C039FE5792A00EB840084E595
S31580801D708C0084E2EC6E00EB7F2A00EB0050A0E1C1
S31580801D80892A00EB0510A0E10020A0E18C0084E286
S31580801D90EF6E00EB8C0084E2F7FCFFEB8C0084E234
S31580801DA0B06F00EB010057E3CC329FD5004093D5CE
S31580801DB0040000DA04009AE50010A0E31020A0E376
S31580801DC0437300EB0040A0E1A4B29FE50100A0E34D
S31580801DD0712C00EB0060A0E30400A0E15A2B00EB9D
S31580801DE054608BE50040A0E150608BE50050A0E117
S31580801DF04D2B00EB010050E35400001A0410A0E143
S31580801E0078029FE50F1C00EB0400A0E184609BE5CF
S31580801E10C2FEFFEB68329FE5030050E10300000AB3
S31580801E2060029FE5FB1B00EB0000E0E38C0000EA8C
S31580801E300200A0E3582C00EB0400A0E1F72900EB18
S31580801E40000050E30300001A3C029FE5F11B00EB83
S31580801E500100E0E3820000EA0300A0E34E2C00EB61
S31580801E600400A0E1A62A00EB000056E30B00000ADE
S31580801E7018029FE5E71B00EB0400A0E1FB2900EB3D
S31580801E80000050E30300001A04029FE5ED1B00EB7F
S31580801E900200E0E3720000EAF8019FE5DD1B00EBBB
S31580801EA00400A0E33C2C00EB1D10D4E5020051E336
S31580801EB06800001A0500A0E3B4619FE5362C00EB2C
S31580801EC01E30D4E5020053E30A00000A040053E37F
S31580801ED00200000A010053E30C00001A050000EAA4
S31580801EE00400A0E10010A0E3502086E2543086E210
S31580801EF0F52900EB0A0000EA403084E20400A0E184
S31580801F00503086E5B8FEFFEB540086E5040000EA93
S31580801F1084019FE5001099E5CA1B00EB0400E0E38D
S31580801F204F0000EA48619FE50410A0E14020A0E3CD
S31580801F30040086E2377100EB0130A0E30600A0E35F
S31580801F40004086E5443086E5132C00EB050000EAE8
S31580801F50001099E50650A0E140019FE5B91B00EB92
S31580801F606B00E0E30C2C00EB04419FE5543094E554
S31580801F70000053E30300001A24019FE5A51B00EBB4
S31580801F800100A0E3390000EA0500A0E1E62A00EB23
S31580801F90010050E30060A0E108019F15F6FFFF1A5B
S31580801FA01E90D5E50500A0E15D90C4E51F30D5E59E
S31580801FB05C30C4E51CB0D5E55EB0C4E58AFEFFEB37
S31580801FC0403085E2000083E04C0084E5100095E592
S31580801FD04BFEFFEB443094E5580084E5000053E3E4
S31580801FE00600000A180094E545FEFFEB020059E3DF
S31580801FF004005913600084E50200000A0F0000EA9D
S31580802000A4009FE5DCFFFFEA05005BE30B00001A76
S31580802010643084E20700A0E100308DE5683084E298
S3158080202004308DE50A10A0E10420A0E10230A0E30F
S31580802030C82A00EB000050E370009F15CEFFFF1A80
S315808020402C309FE50120A0E30000A0E3485083E583
S31580802050882083E5050000EA54009FE5791B00EB24
S315808020600300E0E3CC2B00EB0050A0E3BDFFFFEA4A
S31580802070FC8EBDE8582F8380969D8280E00B83807E
S315808020809D9D828056190527EC9B8280019C82804B
S31580802090169C8280349C8280429C8280CF9D828066
S315808020A0F09D8280139E8280339E8280569E82801F
S315808020B07A9E82809F9E82801EFF2FE1F0442DE94A
S315808020C000A0A0E130D04DE20270A0E10720A0E31D
S315808020D00360A0E1040093E5F8119FE5F61900EB13
S315808020E0000050E30700000A0C5090E5010055E39C
S315808020F00800001A0A00A0E1011047E2042086E267
S315808021000EFFFFEB010000EA0A00A0E11D1A00EB3A
S315808021100050A0E16C0000EABC419FE5883094E5E0
S31580802120050053E1020000BAB0019FE5451B00EB34
S31580802130F4FFFFEA033085E15E20D4E5883084E5CC
S31580802140100055E398319FE502A193E73A00000A93
S31580802150040000CA020055E30900000A040055E322
S315808021601C00000A570000EA400055E34400000A3C
S31580802170800055E34C00000A200055E35100001A88
S31580802180360000EA583094E5480084E200308DE5D8
S315808021905C30D4E504308DE55D30D4E508308DE55E
S315808021A018308DE20C308DE50030A0E310308DE55F
S315808021B00F0090E889FEFFEB005050E24200001A43
S315808021C0581094E58C0084E218209DE5022061E019
S315808021D0236E00EB3C0000EA641094E5743084E260
S315808021E0682094E58C0084E200308DE5703084E24E
S315808021F0022061E0E32A00EB005050E23200001AB0
S31580802200702094E51C008DE2D8109FE5737400EBF6
S315808022101C108DE2D0009FE5521500EB1C008DE2EC
S31580802220C0109FE5742094E56C7400EB1C108DE2E1
S31580802230B8009FE54B1500EB230000EA0500A0E17E
S315808022400710A0E10620A0E10430A0E13AFF2FE14B
S31580802250005050E21B00000A94009FE5100000EABF
S315808022600500A0E10710A0E10620A0E10430A0E1EE
S315808022703AFF2FE1005050E278009F150800001A3F
S31580802280100000EA0500A0E10710A0E10620A0E189
S315808022900430A0E13AFF2FE1005050E20900000AA5
S315808022A054009FE5E71A00EB070000EA8CFCFFEB01
S315808022B080FFFFEB0500A0E10710A0E10620A0E1EA
S315808022C00430A0E13AFF2FE10050A0E30500A0E1B1
S315808022D030D08DE2F084BDE82C098380582F8380AE
S315808022E0BE9E82807C6C8280E89E8280EC9E82808C
S315808022F0F99E8280049F8280269F8280449F8280EE
S31580802300010052E3F04E2DE90350A0E140D04DE22A
S315808023100030A0E30070A0E101A0A0E10260A0E10E
S3158080232018308DE5100000DA040095E51C108DE2EA
S315808023301020A0E3E67100EB1C309DE50030D3E5EC
S315808023403A0053E3000053130700000A230053E347
S315808023500500000A0700A0E10A10A0E10620A0E19E
S315808023600530A0E154FFFFEB7E0000EA0700A0E184
S315808023700610A0E10520A0E170FEFFEB000050E38F
S315808023807700001AE4419FE555FCFFEB0090A0E1C1
S31580802390583094E5480084E200308DE55C30D4E5A1
S315808023A004308DE55D30D4E508308DE518308DE2DA
S315808023B00C308DE50130A0E310308DE50F0090E87C
S315808023C006FEFFEB000050E31D0000AA010070E3CB
S315808023D00E00000A020070E31200001A443094E571
S315808023E0000053E30500000A2230D4E5040053E35D
S315808023F01300001A78019FE5861A00EB100000EA28
S3158080240070019FE5831A00EB7000E0E3E22A00EB1F
S315808024100700A0E10A10A0E10620A0E10530A0E136
S31580802420BCFCFFEB060000EA030070E30400001AA0
S31580802430000059E30000000A28FCFFEB0600E0E379
S31580802440380000EA24419FE518209DE5581094E5E0
S315808024508C0084E204B0A0E1022061E0806D00EB14
S315808024605D30D4E5010053E31C00001A000059E377
S315808024700000000A19FCFFEBFC009FE5A11500EB2C
S31580802480000050E30D00000AF0109FE5E66E00EB39
S31580802490004050E20900001AD0309FE520008DE28E
S315808024A0DC109FE5542093E5CC7300EBD4009FE548
S315808024B020108DE2AB1400EB0400A0E1290000EA35
S315808024C060009BE50EFDFFEB041085E20030A0E105
S315808024D0010046E233FF2FE10000A0E3210000EAFD
S315808024E00800A0E3AC2A00EB5E20D4E598309FE517
S315808024F002B193E700005BE30C00001A000059E309
S315808025000000000AF5FBFFEB60409FE55E00D4E5A6
S31580802510E32800EB5E20D4E50010A0E16C009FE507
S31580802520481A00EB0700E0E39B2A00EB0C0000EAE8
S31580802530E0FEFFEB0610A0E10520A0E10430A0E1DB
S315808025400000A0E33BFF2FE10800E0E3922A00EB46
S315808025500700A0E10A10A0E10620A0E10530A0E1F5
S315808025606CFCFFEB0100A0E340D08DE2F08EBDE8ED
S31580802570582F8380639F82809D9F8280E49F828004
S31580802580C6068380EE9F8280F29F82807C6C82806A
S31580802590FB9F828073402DE90050A0E154009FE527
S315808025A00160A0E1571500EB000050E30100001A9E
S315808025B00000A0E30E0000EA3C109FE59A6E00EBD7
S315808025C0004050E2F9FFFF1A30309FE530009FE5EA
S315808025D000608DE5001093E504408DE5191A00EBC7
S315808025E00500A0E10410A0E10120A0E30D30A0E168
S315808025F042FFFFEB7C80BDE8E49F828029A08280B9
S31580802600E00B83802DA0828010402DE90040A0E1E0
S3158080261048109FE5846E00EB000050E30B00000AB3
S315808026200400A0E138109FE57F6E00EB000050E348
S315808026300800000A0400A0E128109FE57A6E00EB6E
S31580802640000050E30000E0130000A0031080BDE886
S315808026500200A0E31080BDE80100A0E31080BDE801
S31580802660DFA3828012FE8280819A828000009FE52D
S31580802670E81900EAE5A38280010052E308402DE94B
S315808026801100000A020052E30D00001A040093E54F
S31580802690DCFFFFEB010050E30500000A020050E3F7
S315808026A00500000A000050E30700001A63FBFFEB79
S315808026B0050000EA5BFBFFEB030000EAEAFFFFEB25
S315808026C0010000EA0840BDE8AE1800EA61FBFFEB36
S315808026D018309FE5000050E314109FE514009FE5B5
S315808026E00310A011D71900EB0000A0E30880BDE895
S315808026F062D982800FA4828013A4828000009FE5A5
S31580802700C41900EA2CA48280010052E308402DE996
S315808027101100000A020052E30D00001A040093E5BE
S31580802720B8FFFFEB010050E30500000A020050E38A
S315808027300500000A000050E30700001A53FBFFEBF8
S31580802740050000EA47FBFFEB030000EAEAFFFFEBA8
S31580802750010000EA0840BDE88A1800EA54FBFFEBD6
S3158080276018309FE5000050E314109FE514009FE524
S315808027700310A011B31900EB0000A0E30880BDE828
S3158080278062D982800FA4828056A4828040309FE561
S3158080279010402DE93C009FE5404093E51F4004E2D0
S315808027A00410A0E1A71900EB160054E31C00541313
S315808027B00300001A20009FE5A21900EB0000A0E329
S315808027C01080BDE814009FE59E1900EB0100A0E310
S315808027D01080BDE80000E14454A582806EA5828089
S315808027E077A58280F7462DE9042F00EB0060A0E173
S315808027F090009FE5871900EB8CA09FE5004096E5C9
S315808028001C0000EA342014E5347044E27C909FE515
S315808028100050A0E378009FE5010012E32E10A0030C
S315808028204910A013020012E32E30A0034F30A0136C
S31580802830000052E30A008DE8081087E22E30A0A3BC
S315808028405330A0B37F1900EB0A3095E7070053E138
S315808028500200001A3C009FE5091095E7791900EB84
S31580802860045085E20C0055E3F6FFFF1A0A00A0E3C8
S315808028705C1900EB004094E5060054E1E0FFFF1A06
S315808028800000A0E3FE86BDE8F1A582801C378380A8
S31580802890801083800DA682808AD68280F8462DE934
S315808028A00160A0E30290A0E103A0A0E10650A0E130
S315808028B0130000EA010055E30440BAE50B0000DA14
S315808028C02000A0E3471900EB080000EA5C0050E393
S315808028D00400001A0130D4E5630053E30240840289
S315808028E00060A0030100000A0740A0E13D1900EBCB
S315808028F00470A0E10100D7E4000050E3F2FFFF1AE4
S31580802900015085E2090055E1E9FFFFBA000056E3F0
S315808029100100000A0A00A0E3321900EB0000A0E360
S31580802920F886BDE8010052E308402DE90030A0D347
S31580802930050000DA040093E50010A0E30A20A0E3F6
S31580802940637000EB0030A0E1FFFFFFEA0100E0E367
S31580802950000063E00880BDE8032042E2F04E2DE966
S315808029600340A0E170D04DE2030052E302F19F97CD
S31580802970260000EA842980809C298080C0298080E6
S31580802980E02980808C029FE55E1400EB000050E396
S3158080299081A4A0030500000A000000EA0C0093E5EC
S315808029A00010A0E31020A0E3497000EB00A0A0E116
S315808029B064029FE5531400EB0050A0E1050000EA15
S315808029C00C0093E50010A0E31020A0E3407000EB9C
S315808029D0105094E500A0A0E10090A0E30D0000EAED
S315808029E00C0093E50010A0E31020A0E3387000EB84
S315808029F00010A0E300A0A0E11020A0E3140094E5DD
S31580802A00105094E5327000EB0090A0E1010000EA5E
S31580802A10DC1700EB7D0000EA000055E3FC019F0592
S31580802A201600000A14108DE21020A0E3080094E5B9
S31580802A30277000EB0070A0E1040094E50710A0E108
S31580802A40FE3000EB00B050E20500001AD0019FE511
S31580802A500720A0E1041094E5FA1800EB0100A0E3BA
S31580802A606A0000EA14009DE50030D0E5000053E35B
S31580802A700C00000A3A0053E30200000AA4019FE595
S31580802A80E41800EBF4FFFFEA010080E20010A0E387
S31580802A901020A0E314008DE50D7000EB006050E2FD
S31580802AA01F00000A000000EA0160A0E30B00A0E19D
S31580802AB00610A0E124208DE2863100EB000050E3F1
S31580802AC064019F150610A0110A00001A50308DE20D
S31580802AD058119FE50300A0E12020A0E30C308DE50E
S31580802AE05D6D00EB000050E30C309DE50300000A2D
S31580802AF03C019FE50310A0E1D21800EBD6FFFFEAE8
S31580802B0030308DE200608DE504308DE50510A0E1E2
S31580802B10042094E50730A0E118019FE5C91800EBF1
S31580802B20040000EA10019FE50510A0E1042094E5E9
S31580802B300730A0E1C31800EB0B00A0E10610A0E1EE
S31580802B40BD6000EB000050E3F0009F050300000AA3
S31580802B50876000EB000050E30500001AE0009FE5E7
S31580802B60041094E50720A0E10630A0E1B51800EBBB
S31580802B70160000EA0500A0E11D6000EB00B050E27F
S31580802B80030000AA0510A0E1B8009FE5AD1800EB10
S31580802B900E0000EA000059E30B0059110A00A0E1FB
S31580802BA009B0A0310B10A0E1636000EB0B0050E10F
S31580802BB00090A0E10700000A00608DE50510A0E185
S31580802BC084009FE50730A0E1042094E59D1800EB02
S31580802BD02C6000EBA0FFFFEA2A6000EB6C309FE55B
S31580802BE00910A0E168009FE500A083E5951800EBB9
S31580802BF060109FE50920A0E118008DE2F77100EB57
S31580802C0054009FE518108DE2D61200EB0000A0E3F9
S31580802C1070D08DE2F08EBDE8BB968280C49682802D
S31580802C20AEA68280EBA7828011A88280CAA6828087
S31580802C30E2A68280E9A682801EA782804EA78280B5
S31580802C4073A7828093A78280C0A7828001AB82800F
S31580802C50E00B8380D6A78280E5A78280F29F8280E0
S31580802C60020052E3F3442DE90270A0E10340A0E123
S31580802C70010000CA431700EB3C0000EA080093E598
S31580802C8004108DE21020A0E3916F00EB0050A0E14C
S31580802C90040094E50510A0E1683000EB00A050E2C6
S31580802CA00400001A041094E50520A0E1C0009FE589
S31580802CB0641800EB290000EA04309DE50020D3E506
S31580802CC0000052E30B00000A3A0052E30200000A39
S31580802CD0A0009FE54F1800EB200000EA010083E208
S31580802CE00010A0E31020A0E304008DE5786F00EB50
S31580802CF00060A0E1000000EA0160A0E3040057E3E1
S31580802D000A00A0E10610A0E10C70940568709F15FA
S31580802D10496000EB000050E360009F050300000AD5
S31580802D20136000EB000050E30500001A50009FE519
S31580802D30041094E50520A0E10630A0E1411800EB5F
S31580802D40050000EA0700A0E18B5F00EB004050E2BF
S31580802D500400000A2C009FE53A1800EBC95F00EB5F
S31580802D600100A0E3010000EAC65F00EB0400A0E159
S31580802D70FC84BDE8EAA7828010A88280E8A782804A
S31580802D8073A7828093A782803EA88280010052E3C7
S31580802D90F7402DE90340A0E1030000CAB0009FE51B
S31580802DA0281800EB0000A0E3280000EA080093E5DD
S31580802DB004108DE21020A0E3456F00EB0060A0E157
S31580802DC0040094E50610A0E11C3000EB007050E210
S31580802DD080009F050600000A04309DE50020D3E52B
S31580802DE0000052E30C00000A3A0052E30300000A16
S31580802DF064009FE5071800EB0100A0E3130000EA5A
S31580802E00010083E20010A0E31020A0E304008DE59A
S31580802E102F6F00EB0050A0E1000000EA0150A0E394
S31580802E200700A0E10510A0E1316200EB000050E3CD
S31580802E300500000A041094E50620A0E10530A0E193
S31580802E4018009FE5FF1700EBEAFFFFEAE36400EBDB
S31580802E50FE80BDE8B2A98280DBA9828010A88280AC
S31580802E60F7A98280020052E3F3442DE90260A0E153
S31580802E700340A0E1030000CAD4009FE50040A0E3A0
S31580802E80F01700EB300000EA080093E504108DE22D
S31580802E901020A0E30E6F00EB0070A0E1040094E5A3
S31580802EA00710A0E1E52F00EB00A050E2A4009F056B
S31580802EB00600000A04309DE50020D3E5000052E339
S31580802EC00C00000A3A0052E30300000A88009FE55E
S31580802ED0D01700EB0140A0E31B0000EA010083E2EB
S31580802EE00010A0E31020A0E304008DE5F86E00EBCF
S31580802EF00050A0E1000000EA0150A0E30A00A0E1B2
S31580802F000510A0E1FA6100EB000050E30500000A9D
S31580802F10041094E50720A0E10530A0E13C009FE500
S31580802F20C81700EBEAFFFFEA040056E30C0094051D
S31580802F302C009F15FF6400EB000050E30040A0E169
S31580802F400100000A1C009FE5BE1700EB0400A0E18B
S31580802F50FC84BDE822AA8280DBA9828010A8828038
S31580802F6055AA8280E8A782807EAA8280040052E366
S31580802F70F0462DE902A0A0E11CD04DE20340A0E1FD
S31580802F80020000CA44019FE5AE1700EB400000EACC
S31580802F90080093E508108DE21020A0E3CC6E00EB4C
S31580802FA00060A0E1040094E50610A0E1A32F00EB69
S31580802FB0007050E218019F050600000A08309DE5E2
S31580802FC00020D3E5000052E30B00000A3A0052E36A
S31580802FD00200000AFC009FE58E1700EB2C0000EAB9
S31580802FE0010083E20010A0E31020A0E308008DE5B5
S31580802FF0B76E00EB0050A0E1000000EA0150A0E32C
S315808030000700A0E10510A0E1B96100EB007050E2F5
S315808030100500000A041094E50620A0E10530A0E1B1
S31580803020B4009FE5871700EB190000EA1020A0E323
S315808030300C0094E50710A0E1A56E00EB06005AE32C
S315808030400090A0E10720A0110500001A1020A0E3BF
S31580803050140094E50710A0E19D6E00EB0020A0E1AE
S31580803060FFFFFFEA100094E50910A0E1B56400EB4C
S31580803070010070E30070A0E10700001A00508DE522
S315808030800630A0E154009FE5101094E5042094E575
S315808030906C1700EB0100A0E30A0000EA0710A0E1AC
S315808030A03C009FE5671700EB38109FE50720A0E17D
S315808030B00C008DE2C97000EB2C009FE50C108DE230
S315808030C0A81100EB0000A0E31CD08DE2F086BDE85D
S315808030D092AA8280DBA9828010A88280D5AA8280EB
S315808030E000AB82802AAB8280EE9F8280F29F828034
S315808030F007402DE901C0A0E100E0A0E124109FE512
S3158080310024009FE50C008DE80E20A0E11C309FE511
S31580803110011060E0C111A0E1930101E00C30A0E1D3
S315808031202F1600EB0E80BDE8000000000000000036
S31580803130ABAAAAAA0030A0E30320D0E72E0052E3F0
S315808031400300001A033080E00100D3E5300040E2BE
S315808031501EFF2FE1000052E30200000A013083E265
S31580803160080053E3F3FFFF1A0100A0E31EFF2FE15F
S31580803170010052E3F8402DE90040A0E10150A0E132
S315808031800F0000DA017042E2040093E538109FE573
S315808031900B20A0E3046083E2C71500EB000050E3B8
S315808031A00600000A0CC090E50510A0E10400A0E1AD
S315808031B00720A0E10630A0E13CFF2FE1F880BDE842
S315808031C00400A0E1F840BDE8EE1500EAD4098380CA
S315808031D008402DE90110A0E308009FE5A23100EBAD
S315808031E00000A0E30880BDE8A086010010402DE99C
S315808031F00040A0E338009FE5061700EBFF0004E25D
S31580803200E63100EB000050E30200001A24009FE5BF
S315808032100410A0E10B1700EB014084E2800054E3A8
S31580803220F5FFFF1A0A00A0E3EE1600EB0000A0E38C
S315808032301080BDE82DAD828043AD8280F04E2DE931
S315808032400350A0E194319FE5020052E320D04DE205
S3158080325000C0A0E102B0A0E10090D3E5500093E9E0
S315808032607C319FE508A193E5130000DA017011E2B5
S315808032701A00001A040095E50710A0E11020A0E34B
S315808032800CC08DE5126E00EB0710A0E11020A0E344
S31580803290FF9000E2080095E50D6E00EB0040A0E10E
S315808032A0080095E5A2FFFFEB030050E30060A0E1F4
S315808032B00CC09DE50200009A0C00A0E1B11500EBE0
S315808032C0440000EA03005BE30400000A0C0095E5F5
S315808032D00710A0E11020A0E3FD6D00EB00A0A0E127
S315808032E00A70A0E110B08DE2100057E30750A0B1BC
S315808032F01050A0A30B30A0E100508DE50900A0E11D
S315808033000410A0E10620A0E1DF3100EB003050E21E
S315808033100200000ACC009FE5BE1600EB240000EA7E
S31580803320C4009FE50410A0E10C308DE5C51600EB46
S315808033300C309DE5050000EA0310DBE7AC009FE5D5
S315808033400C308DE5BF1600EB0C309DE5013083E2B5
S31580803350050053E1F7FFFFBA94009FE5000055E32F
S31580803360054084A0AB1600EB0030A0E30C0000EA99
S315808033700B10D3E7202041E25E0052E30300009ADF
S3158080338070009FE50C308DE5A21600EB020000EA06
S3158080339064009FE50C308DE5AA1600EB0C309DE528
S315808033A0013083E2050053E1F0FFFFBA0A00A0E313
S315808033B08C1600EB077065E0000057E3C9FFFFCAF3
S315808033C018309FE50000A0E30090C3E5500083E9B4
S315808033D00C309FE508A183E520D08DE2F08EBDE894
S315808033E084308380D409838049AD828062AD828037
S315808033F068AD828017F882802C0583805898828079
S31580803400020052E3F0462DE900A0A0E11CD04DE2F7
S315808034100260A0E10340A0E10F0000DA040093E59A
S315808034200010A0E31020A0E3A96D00EB0010A0E3BC
S315808034301020A0E30090A0E1080094E5A46D00EB45
S315808034400070A0E1080094E539FFFFEB030050E3AC
S315808034500050A0E10200009A0A00A0E1491500EB25
S315808034601D0000EA0C0094E50010A0E31020A0E384
S31580803470976D00EB100050E300A0A03110A0A02330
S31580803480030056E3FA4FA0030500000A100094E576
S315808034900010A0E30A20A0E38D6D00EB0040A0E140
S315808034A0FFFFFFEAFF6009E200A08DE50600A0E14C
S315808034B00710A0E10520A0E108308DE2723100EB93
S315808034C0000050E30100000A14009FE5511600EBCE
S315808034D00400A0E1226C00EBF2FFFFEA1CD08DE2B3
S315808034E0F086BDE849AD8280050052E3F3442DE93C
S315808034F000A0A0E10340A0E10F00001A040093E53C
S315808035000010A0E31020A0E3716D00EB0010A0E313
S315808035101020A0E30070A0E1080094E56C6D00EBBC
S315808035200060A0E1080094E501FFFFEB030050E313
S315808035300050A0E10300009A0A00A0E108D08DE245
S31580803540F044BDE80F1500EA0010A0E31020A0E348
S315808035500C0094E55E6D00EB0010A0E300A0A0E176
S315808035601020A0E3100094E5596D00EB00A08DE556
S315808035700030A0E10610A0E1FF0007E20520A0E16F
S31580803580413100EB000050E30200000A0C009FE509
S31580803590201600EB0100A0E308D08DE2F084BDE820
S315808035A049AD8280F0462DE90340A0E1043042E2B5
S315808035B014D04DE2010053E30090A0E10260A0E1C7
S315808035C00F00008A0010A0E31020A0E3040094E599
S315808035D03F6D00EB0010A0E31020A0E30070A0E117
S315808035E0080094E53A6D00EB00A0A0E1080094E520
S315808035F0CFFEFFEB030050E30050A0E10200009A6B
S315808036000900A0E1DF1400EB210000EA0C0094E5BC
S315808036100010A0E31020A0E32D6D00EB050056E39B
S315808036200F00CDE50100A0130400001A100094E578
S315808036300010A0E31020A0E3256D00EBFFFFFFEADA
S315808036400A10A0E10A4080E00D0000EA0130A0E384
S31580803650FF0007E200308DE50520A0E10F308DE286
S31580803660016081E29B3100EB000050E30100000A9B
S3158080367024009FE5E71500EB20009FE5B86B00EB03
S315808036800610A0E1043061E0000053E3EEFFFFCA3C
S315808036900000A0E314D08DE2F086BDE86EAD828016
S315808036A0F82A0000010052E310402DE90500001A37
S315808036B0113200EB0010A0E14C009FE5E11500EB94
S315808036C00040A0E30E0000EA040093E50A20A0E310
S315808036D00010A0E3FE6C00EB0040A0E12C009FE58B
S315808036E00410A0E1D71500EB0400A0E1063200EBC0
S315808036F0004050E20200000A14009FE50410A0E119
S31580803700D01500EB0400A0E11080BDE887AD8280F3
S315808037109AAD8280ADAD8280030052E3F0462DE97A
S315808037200060A0E114D04DE20340A0E10F0000DAF2
S31580803730040093E50010A0E31020A0E3E46C00EB86
S315808037400010A0E31020A0E300A0A0E1080094E58B
S31580803750DF6C00EB0050A0E1080094E574FEFFEB7F
S31580803760030050E30070A0E10200009A0600A0E109
S31580803770841400EB290000EA0C0094E50010A0E395
S315808037801020A0E30040A0E3D16C00EB012045E24D
S315808037900090A0E1092082E088009FE50510A0E1E5
S315808037A00460A0E1A71500EB059089E00E0000EA91
S315808037B00130A0E30510A0E100308DE50720A0E16F
S315808037C00F308DE2FF000AE2AF3000EB0F108DE202
S315808037D0000050E30120A0E30600A0E101408412AE
S315808037E0015085E2106400EB0060A0E1093065E05D
S315808037F0000053E3EDFFFFCA000054E30300000A94
S3158080380024009FE5831500EB0000A0E3030000EA17
S3158080381018009FE50610A0E18A1500EB0400A0E160
S3158080382014D08DE2F086BDE8CFAD8280F6AD828001
S3158080383044988280F04E2DE903A0A0E1CC319FE5AB
S3158080384001B012E218D04DE200C0A0E10190A0E163
S315808038500140A0130C70D3E5105093E5146093E576
S315808038601700001A00009AE50110A0E30CC08DE5D0
S31580803870BC1400EB0B10A0E11020A0E30040A0E177
S3158080388004009AE5926C00EB0B10A0E11020A0E377
S31580803890FF7000E208009AE58D6C00EB0050A0E195
S315808038A008009AE522FEFFEB030050E30060A0E16A
S315808038B00CC09DE50200009A0C00A0E1311400EB5B
S315808038C0500000EA0510A0E144019FE55D1500EBFC
S315808038D000408DE50700A0E10510A0E10620A0E16B
S315808038E010308DE2683000EB000050E30200000A61
S315808038F020019FE5471500EB100000EA10309DE51A
S31580803900010054E310019F05FF2C03E2031CA0E114
S31580803910231C81E1FF3803E2021481E1231481E1D3
S3158080392010108DE5211CA0010300000A020054E3DB
S31580803930E8009F052118A001E4009F15411500EB42
S31580803940E0009FE54F2600EB000050E30200001A5E
S31580803950000059E304508510220000EAC8009FE5E4
S3158080396014108DE21020A0E3596C00EB010054E323
S31580803970000CA0010100000A020054E30008A001A7
S3158080398010008DE510309DE514A09DE5FF1C03E2B7
S31580803990032CA0E1232C82E1FF3803E2012482E11B
S315808039A0233482E110308DE57C309FE503A05AE098
S315808039B00F00000A00408DE50700A0E10510A0E118
S315808039C00620A0E110308DE2C23000EB000050E38B
S315808039D00100000A54009FE50E1500EB000059E3B4
S315808039E004508510000000EA04A0A0E100005AE39C
S315808039F0B3FFFF1A14309FE50000A0E30C70C3E587
S31580803A00105083E5146083E518D08DE2F08EBDE892
S31580803A1084308380EEAD8280F5AD82800FAE8280E9
S31580803A2016AE82801DAE828024AE8280D034838022
S31580803A306EAD8280030052E301C0A0E10000000ADF
S31580803A40D01300EA0110A0E30C20A0E178FFFFEA02
S31580803A50030052E301C0A0E10000000AC91300EA16
S31580803A600010A0E30C20A0E171FFFFEA1EFF2FE18A
S31580803A7000009FE51EFF2FE1A08601000C309FE5A8
S31580803A80030050E10000E0130000A0031EFF2FE139
S31580803A90A0860100010052E310402DE90500001A3E
S31580803AA0F2FFFFEB0010A0E14C009FE5E51400EBF0
S31580803AB00040A0E30E0000EA040093E50A20A0E31C
S31580803AC00010A0E3026C00EB0040A0E12C009FE593
S31580803AD00410A0E1DB1400EB0400A0E1E6FFFFEB1D
S31580803AE0004050E20200000A14009FE50410A0E125
S31580803AF0D41400EB0400A0E11080BDE828AE82805B
S31580803B003EAE82805AAE828010402DE90140A0E18F
S31580803B100020D0E52A0052E31000001A010080E2DE
S31580803B200010A0E31020A0E3E96B00EB020054E3D1
S31580803B300600000A040054E30600000A010054E3EC
S31580803B400000A0130900001A0000D0E51080BDE8AF
S31580803B50B000D0E11080BDE8000090E51080BDE81F
S31580803B600010A0E31020A0E3D96B00EBFFFFFFEAF3
S31580803B708441A0E10030E0E31304C0E11080BDE819
S31580803B80F04E2DE90070A0E10140A0E10250A0E155
S31580803B900360A0E1A4919FE54D6900EB00A0A0E1C0
S31580803BA05D0000EA0700A0E1081019E50A20A0E17F
S31580803BB0296900EB000050E35600001A080019E5D9
S31580803BC0436900EB00005AE15200001A000056E378
S31580803BD004709BE52800001A0030D4E52A0053E360
S31580803BE00400001A010084E20610A0E11020A0E300
S31580803BF0B76B00EB0040A0E10030D5E52A0053E3A7
S31580803C000400001A010085E20010A0E31020A0E3E2
S31580803C10AF6B00EB0050A0E10400A0E10510A0E1AD
S31580803C20016900EB050057E307F19F97410000EAA1
S31580803C30483C8080543C8080743C8080603C80801E
S31580803C40683C8080703C8080010070E20000A033F8
S31580803C50F08EBDE8000090E20100A013F08EBDE8F2
S31580803C60000050E3200000EA000050E3220000EAD2
S31580803C700000E0E1A00FA0E1F08EBDE80400A0E1A5
S31580803C800610A0E19FFFFFEB0610A0E10040A0E1B7
S31580803C900500A0E19BFFFFEB050057E307F19F97A7
S31580803CA0240000EABC3C8080CC3C8080D83C8080EC
S31580803CB0E83C8080F83C8080083D8080003054E0FD
S31580803CC0000073E20300B0E0F08EBDE8000054E0AF
S31580803CD00100A013F08EBDE8000054E10000A0A38F
S31580803CE00100A0B3F08EBDE8000054E10000A0D3AF
S31580803CF00100A0C3F08EBDE8000054E10000A0C39F
S31580803D000100A0D3F08EBDE8000054E10000A0B38E
S31580803D100100A0A3F08EBDE8089089E220309FE55F
S31580803D2008B049E2030059E19DFFFF1A14009FE520
S31580803D300710A0E1431400EB0000A0E3F08EBDE8FD
S31580803D40D06C8280386D828043B18280040052E359
S31580803D5010402DE90340A0E10100000A1040BDE833
S31580803D60081300EA000093E50210A0E17D1300EBC2
S31580803D70022080E20030A0E1060052E302F19F97A4
S31580803D80100000EAB03D8080C83D8080C83D80803C
S31580803D90A03D8080A03D8080C83D8080A03D808081
S31580803DA0080094E5041094E50C2094E5030000EA6D
S31580803DB0080094E50030A0E3041094E50C2094E597
S31580803DC06EFFFFEB020000EA10009FE5111400EB06
S31580803DD00000A0E3010070E20000A0331080BDE8FF
S31580803DE05AB1828038402DE90350A0E13C319FE56D
S31580803DF00210A0E30300A0E1B41083E5B41090E53F
S31580803E0028319FE5031001E2020051E3FAFFFF1A91
S31580803E10B41093E5011781E3B41083E5B41093E57C
S31580803E20010711E3FCFFFF0A04119FE5303191E51C
S31580803E300130C3E3303181E5103091E5023083E390
S31580803E40103081E5143191E5E4409FE5010013E36C
S31580803E50FBFFFF0ADC309FE5020052E30F10A0E3F0
S31580803E60A01983E51800000A030052E32C00001A8B
S31580803E70343194E5040095E5BC109FE50137C3E3B2
S31580803E80343184E5686800EB000050E33880BD18E3
S31580803E90080095E5A4109FE5636800EB000050E379
S31580803EA03880BD180157A0E394009FE5E51300EBA9
S31580803EB0945184E58C009FE5A96900EB905184E557
S31580803EC080009FE5A66900EBF8FFFFEA040095E590
S31580803ED074109FE5546800EB000050E30500001ADB
S31580803EE0343194E50137C3E3343184E50137A0E387
S31580803EF0943184E53880BDE8040095E54C109FE5D3
S31580803F00496800EB000050E33880BD18343194E571
S31580803F100137C3E3343184E50137A0E3903184E50A
S31580803F203880BDE828009FE53840BDE8C51300EAA3
S31580803F300000E04400E01A480000E144F6B1828047
S31580803F40FCB1828000B2828020A1070012FE82802E
S31580803F50819A82806FB2828010309FE50020A0E3B4
S31580803F60002083E5082093E5042083E51EFF2FE16A
S31580803F709C308380F0402DE943DE4DE204D04DE2D3
S31580803F800230A0E30060A0E10D10A0E104008DE284
S31580803F9008308DE5802A00EB000050E30D70A0E1AB
S31580803FA00050A0010D70A0010540A0010600000A06
S31580803FB00C0000EA060085E030108DE2024084E045
S31580803FC0025085E0F96800EBFFFFFFEA0D20A0E153
S31580803FD030008DE2011BA0E3C22A00EB002050E274
S31580803FE0F3FFFFCA050000EA00009DE50040A0E3DC
S31580803FF08A2B00EB0010A0E15C009FE5911300EB1B
S315808040000D00A0E14C2B00EB0000A0E34C109FE557
S315808040105D2B00EB0600A0E10410A0E18FF1FFEBA1
S315808040200410A0E10420A0E134009FE5851300EB15
S315808040300420A0E110008DE228109FE5E76C00EB5C
S3158080404010108DE220009FE5C60D00EB0600A0E1F2
S3158080405034D08DE201DB8DE2F080BDE8F1D38280C1
S3158080406070408080ADB28280E5A78280F29F828018
S3158080407008402DE94F1300EB000050E30100000A51
S315808040800840BDE83F1300EA0000E0E30880BDE811
S3158080409014309FE5002093E5000052E304209305C9
S315808040A00100C204042083051EFF2FE19C3083809B
S315808040B0F04E2DE9D2DF4DE2D13F8DE20060A0E364
S315808040C0013083E20650A0E114008DE50040E0E3F4
S315808040D0057D8DE210308DE5440000EA0700A0E181
S315808040E018108DE21C208DE240308DE22A2800EB6C
S315808040F0000050E3680000BA010040E2080050E307
S3158080410000F19F972D0000EA2C4180802C41808091
S315808041102C418080C0418080C0418080C041808029
S3158080412068418080684180806841808014309DE5C8
S3158080413040108DE21CA09DE518209DE50AA083E0B5
S315808041400A00A0E10A0054E10A40A021976800EBAA
S3158080415018309DE5013043E20AA083E00A0055E1EC
S315808041600A50A031150000EA016085E234019FE59E
S31580804170066064E0FA6800EB0630A0E10520A0E1E5
S315808041800410A0E100608DE51C019FE52D1300EBF6
S315808041900400A0E10610A0E130F1FFEB0C119FE551
S315808041A00620A0E120008DE28C6C00EB00019FE56B
S315808041B020108DE26B0D00EB1C009DE5370000EA38
S315808041C0F0309FE5003093E5000053E30700001A46
S315808041D0016086E26410A0E30600A0E1628A00FAAC
S315808041E0000051E30100001A2E00A0E3FD1200EBCF
S315808041F0C0B09FE5019087E2E21200EB00109BE55C
S3158080420001A049E2FF2000E2000051E30300000A9A
S315808042100200A0E10C208DE5F21200EB0C209DE5DA
S31580804220030052E31C00000A020000CA000052E329
S315808042301900000A030000EA0A0052E31100000A0E
S315808042400D0052E30F00000A012049E509A0A0E194
S31580804250502098E560309FE5042092E5030052E186
S315808042600400001A10309DE5019089E2030059E12F
S31580804270E0FFFF1A030000EA0F1300EB000050E313
S31580804280F7FFFF0A040000EA0030A0E30030CAE5A9
S315808042900AA067E000005AE38FFFFFAA0000E0E3F0
S315808042A0D2DF8DE2F08EBDE810270000D5B2828005
S315808042B0EE9F8280F29F8280E00A8380888D8080D4
S315808042C038402DE90240A0E1B8009FE50350A0E187
S315808042D00C0E00EB000050E3AC109FE50300000A53
S315808042E00030D0E5310053E30130A0030000000A9E
S315808042F00030A0E3020054E3003081E50040A01343
S315808043000500001A040095E50010A0E31020A0E3C4
S315808043103D6A00EB0040A0E1FFFFFFEA6C009FE56D
S31580804320C81200EB0400A0E16440A0E35FFFFFEBCE
S315808043300050A0E19F1200EB000050E30000000ACD
S31580804340901200EBFA0FA0E3856800EB014054E2FF
S31580804350F7FFFF1A010075E30300001A30009FE51E
S31580804360B81200EB0100A0E33880BDE80510A0E11B
S3158080437020009FE5B31200EB1C309FE50400A0E18E
S31580804380005083E53880BDE83AB38280E00A838036
S3158080439045B3828069B3828087B38280E00B8380D5
S315808043A038402DE920309FE50C4093E50350A0E10D
S315808043B0020000EA014044E21000D5E5891200EB54
S315808043C0000054E3FAFFFFCA3880BDE89C308380C2
S315808043D0603000E2400053E30100001ABF0000E233
S315808043E01EFF2FE17F3000E23F0053E340008003D1
S315808043F01EFF2FE1010040E20030A0E3000000EACA
S31580804400023083E00120F0E5000052E3FBFFFF1AD3
S31580804410032CA0E1220F83E03F0000E21EFF2FE104
S3158080442010402DE90040A0E1014044E2DBFFFFEB34
S31580804430000000EA6B1200EB0100F4E5000050E317
S31580804440FBFFFF1A1080BDE838402DE90130A0E3DC
S3158080445048409FE5200080E20050A0E31130C4E50B
S315808044602330A0E31230C4E55930A0E31300C4E5BD
S31580804470120084E21430C4E51550C4E5DCFFFFEBFE
S315808044802930D4E5200080E21500C4E5110084E25D
S315808044901750C4E51630C4E53840BDE8DFFFFFEA33
S315808044A09C30838038402DE90130A0E348409FE5E9
S315808044B0200080E20050A0E31130C4E52330A0E3E1
S315808044C01230C4E54E30A0E31300C4E5120084E2C6
S315808044D01430C4E51550C4E5C5FFFFEB2930D4E51B
S315808044E0200080E21500C4E5110084E21750C4E5FF
S315808044F01630C4E53840BDE8C8FFFFEA9C3083802B
S3158080450008402DE90020A0E30C309FE52C2083E530
S31580804510303093E533FF2FE10880BDE89C3083807F
S3158080452018309FE52C2093E5342083E5002093E5A1
S31580804530382083E5042093E53C2083E51EFF2FE128
S315808045409C30838018309FE5342093E52C2083E54A
S31580804550382093E5002083E53C2093E5042083E59D
S315808045601EFF2FE19C30838038402DE940409FE5B7
S315808045702C2094E5000052E30400000A93FFFFEBB1
S31580804580405094E535FF2FE10030A0E3030000EA38
S315808045904420D4E5000052E10200001A0130A0E3F5
S315808045A02C3084E53880BDE8403094E533FF2FE1B8
S315808045B03880BDE89C308380F8402DE90D20A0E3CB
S315808045C0CC319FE50060A0E1C4419FE5481093E52A
S315808045D02920C3E50020A0E30C2083E51020C3E5D5
S315808045E02320A0E34420C3E55F2083E2020051E1DB
S315808045F05E208302482083054C2084E2483093E500
S31580804600032062E0000052E3013042E20340A0D3FF
S31580804610470000DA000053E37E20A0E31520C4E53E
S31580804620012043E20440A0D3410000DA000052E337
S315808046302130A0E31630C4E5013042E20540A0D3A4
S315808046403B0000DA4E20D4E5000053E3015043E27C
S31580804650202042E2FF2002E20C2084E52020A0E395
S315808046601720C4E50640A0D3310000DA4F00D4E598
S3158080467056FFFFEB000055E34030A0E31000C4E511
S31580804680012045E21830C4E50740A0D3280000DA2F
S315808046905030D4E5000052E3203043E22930C4E52F
S315808046A02D30A0E31930C4E5023045E20840A0D31E
S315808046B01F0000DA5120D4E5000053E3011043E265
S315808046C04420C4E52320A0E31A20C4E50940A0D372
S315808046D0170000DA000051E34E20A0E31B20C4E5DA
S315808046E0023043E20A40A0D3110000DA000053E38F
S315808046F03110A0E31C10C4E50B40A0D30C0000DA77
S31580804700010053E31D20C4E50C40A0030800000A85
S315808047102220A0E31E20C4E52020A0E31F20C4E53C
S315808047207E20A0E32020C4E52120C4E51040A0E3BC
S31580804730FFFFFFEA58509FE50130A0E3206086E2C4
S31580804740017084E21130C5E5203084E21230C5E5FF
S31580804750077085E01360C5E55930A0E30060A0E36B
S31580804760120085E21430C5E5044085E01160C7E516
S315808047701FFFFFEB2930D5E5200080E21100C7E5D9
S31580804780110085E21460C4E51330C4E5F840BDE8C5
S3158080479022FFFFEA9C308380F04E2DE928D04DE2BF
S315808047A01C049FE50260A0E10340A0E1D50C00EBEC
S315808047B0000050E38154A0030400000A0010A0E3A7
S315808047C01020A0E3C26800EB0050A0E1FFFFFFEA63
S315808047D0010056E3087098E5ED0000DA040094E560
S315808047E00010A0E31020A0E3B96800EB030056E335
S315808047F00050A0E1E600001A080094E50010A0E3CE
S315808048000A20A0E3B26800EB006050E2E000000A74
S31580804810070056E10B00000A0610A0E1A4039FE57D
S31580804820881100EBA0039FE54D6700EB086088E563
S31580804830A35400EB90039FE5496700EB511100EB91
S315808048400D0050E3FCFFFF1A000094E57C139FE582
S31580804850F56500EB00A050E20600001A0510A0E185
S315808048600620A0E168039FE5761100EB0500A0E1B4
S31580804870BFFDFFEBB70000EA0510A0E10620A0E1AE
S3158080488050039FE50040A0E36E1100EB48A39FE5AF
S315808048900090E0E344339FE508508AE530308AE52E
S315808048A03C339FE50C408AE51040CAE540308AE576
S315808048B00D30A0E32930CAE52330A0E34430CAE531
S315808048C00EFFFFEB15FFFFEB18139FE548108AE577
S315808048D02C1100EB010050E30200000A030050E334
S315808048E0FAFFFF1A770000EA261100EBE00010E35A
S315808048F000B0A0E16300000A221100EBE00010E323
S315808049006000000AFF0000E2204040E204008DE55E
S31580804910FF4004E2090054E10100001A08FFFFEB22
S31580804920000000EAFDFEFFEB161100EBE00010E3CD
S315808049300090A0E15200000A04309DE5FF200BE242
S3158080494003B082E0202042E2FF2002E2FF3000E2D4
S31580804950022042E203B08BE0020072E31E00001A5E
S31580804960081100EBE00010E34500000AFF3000E20A
S3158080497003B08BE0203043E2FF3003E200308DE5E8
S31580804980001100EBE00010E300309DE53C00000A5A
S31580804990FF0000E25F20A0E300B08BE0200040E2D1
S315808049A0FF0000E2930222E000208DE5F51000EB07
S315808049B0E00010E3FF3000E200209DE53000000A31
S315808049C00B1CA0E1211F8BE03F1001E2201081E2C9
S315808049D0010053E12A00001A03B08BE0FF9009E2C0
S315808049E0170000EA00208DE5E61000EBE00010E37A
S315808049F0FF1000E200209DE52100000A440059E373
S31580804A0001B08BE0012042E20400001A0100A0E19F
S31580804A1000208DE5D3FEFFEB00209DE5080000EAAF
S31580804A20530059E30600001A48009AE50030A0E159
S31580804A300110C3E4B0119FE5010053E10030A0214D
S31580804A4048308AE5010052E3E5FFFFCACD1000EBCE
S31580804A50E00010E30A00000A0B3CA0E1FF0000E2C0
S31580804A6023BF8BE03FB00BE220B08BE20B0050E19E
S31580804A700300001AC31000EBFF0000E20D0050E334
S31580804A800600000A0490A0E1ADFEFFEB0400A0E1E1
S31580804A9083FEFFEB0430A0E10940A0E1420000EAFA
S31580804AA0530059E30400A0E10100001AC1FEFFEB28
S31580804AB0020000EA63FEFFEB420059E33600000AFB
S31580804AC00430A0E1380000EA0040A0E364A0A0E3BF
S31580804AD0B81000EB000050E30000000AA91000EB3C
S31580804AE0FA0FA0E39E6600EB01A05AE2F7FFFF1A59
S31580804AF00410A0E10500A0E1D8EEFFEB0410A0E150
S31580804B000420A0E1E4009FE5CE1000EB0420A0E124
S31580804B10DC109FE508008DE2D8409FE52F6A00EB88
S31580804B20D4009FE508108DE20E0B00EB010075E343
S31580804B300400001AC4009FE500A084E501A0A0E3DC
S31580804B40C01000EB030000EAB4009FE50510A0E1E9
S31580804B50BC1000EB005084E5070056E11500000A82
S31580804B600710A0E19C009FE5B61000EB58009FE5FA
S31580804B707B6600EB087088E5D15300EB48009FE5A3
S31580804B80776600EB7F1000EB1B0050E3FCFFFF1A7B
S31580804B90080000EA0760A0E12AFFFFEA38309FE537
S31580804BA0140093E9044042E0C7FFFFEA0490A0E145
S31580804BB00340A0E143FFFFEA0A00A0E128D08DE20E
S31580804BC0F08EBDE8BB968280A5B3828050C30000FC
S31580804BD0D7B38280DDB382801CB482809C30838010
S31580804BE0583F808090408080E8308380FC3083800E
S31580804BF0ADB28280E5A78280E00B8380F29F82803F
S31580804C005BB4828087B3828080B48280010052E3E5
S31580804C1010402DE928409FE5040000DA040093E5E2
S31580804C200010A0E31020A0E3A96700EB000084E5D4
S31580804C30001094E50C009FE5821000EB0000A0E355
S31580804C401080BDE8FC308380E3B58280010052E32A
S31580804C50F34E2DE90260A0E10350A0E1560000DA10
S31580804C60040093E50010A0E31020A0E3986700EB92
S31580804C70020056E304008DE55100000A080095E5A0
S31580804C800010A0E31020A0E3916700EB030056E3B9
S31580804C9000B0A0E14B00000A0C0095E50010A0E36F
S31580804CA01020A0E38A6700EB040056E30040A0E171
S31580804CB00500000A100095E50010A0E31020A0E30F
S31580804CC0836700EB0070A0E1000000EA0070A0E33B
S31580804CD00150A0E30090A0E305A0A0E1761000EB50
S31580804CE0000050E30300000A0A00A0E33D1000EBB9
S31580804CF00100A0E3360000EA000057E307005A115E
S31580804D00060000DACC009FE501104AE20920A0E186
S31580804D104C1000EB000099E20100A0132C0000EA01
S31580804D20B4209FE50410A0E1B0009FE5451000EB1C
S31580804D300420A0E104309DE5010000EA042083E49C
S31580804D40052082E00B0053E1FBFFFF3A90009FE550
S31580804D50301000EB04C0A0E104609DE50E0000EAFF
S31580804D60002096E50C0052E10900000A0C30A0E193
S31580804D700610A0E16C009FE5019089E200C08DE578
S31580804D80301000EB4C1000EB000050E300C09DE536
S31580804D90D4FFFF1A05C08CE0046086E20B0056E1E2
S31580804DA0EEFFFF3A000054E301A08AE2004064B23D
S31580804DB00440E0A1005065E2C7FFFFEA2133A0E30B
S31580804DC004308DE520B09FE50040A0E30470A0E12B
S31580804DD0BEFFFFEAFC8EBDE8FAB582804BB6828044
S31580804DE023B682804CB6828057B6828000008084CB
S31580804DF0020052E370402DE90360A0E1010000CA01
S31580804E007040BDE8DF0E00EA000093E50410A0E361
S31580804E10540F00EB005050E22F0000BA0010A0E340
S31580804E201020A0E3040096E5296700EB0010A0E33C
S31580804E300040A0E11020A0E3080096E5246700EBFF
S31580804E40010050E30900001A040055E30100001AAE
S31580804E50003094E5FDFFFFEA020055E30100001A69
S31580804E60B030D4E1FDFFFFEA0030D4E5FDFFFFEAF4
S31580804E70040055E30700001A0420A0E10030A0E179
S31580804E80010000EA041092E4013043E2000053E31B
S31580804E90F8FFFF0AFAFFFFEA020055E3040080105C
S31580804EA00700001A0420A0E10030A0E1010000EA9A
S31580804EB0B210D2E0013043E2000053E3F8FFFF0AEC
S31580804EC0FAFFFFEA0430A0E1000000EA0120D3E483
S31580804ED0000053E1FAFFFF0AFBFFFFEA0100A0E32F
S31580804EE07080BDE8F34E2DE90370A0E1C4A09FE5F4
S31580804EF0010052E302B0A0E1BC309FE504609AE5F0
S31580804F0008409AE5005093E5020000CA08D08DE2F9
S31580804F10F04EBDE89B0E00EA019011E21200001A65
S31580804F20000097E50410A0E30E0F00EB004050E2EE
S31580804F300100A0B31D0000BA040097E50910A0E126
S31580804F401020A0E3E26600EB00609AE502005BE356
S31580804F50066080E00400000A080097E50910A0E159
S31580804F601020A0E3DA6600EB0050A0E10410A0E1F7
S31580804F701000A0E3578600FA0610A0E100008DE5B8
S31580804F800420A0E10600A0E10530A0E1956426E03A
S31580804F90815E00EB1C309FE50000A0E318209FE532
S31580804FA0046083E5005082E5084083E5FFFFFFEAE1
S31580804FB008D08DE2F08EBDE8FC308380E40A838061
S31580804FC0020052E3F0442DE90270A0E10340A0E1A3
S31580804FD0010000CAF044BDE86A0E00EA040093E549
S31580804FE00010A0E31020A0E3B96600EB6C309FE54B
S31580804FF00010A0E31020A0E3006093E5066080E0C7
S31580805000080094E5B26600EB00A0A0E10610A0E15E
S315808050100A20A0E10138A0E30000A0E3075E00EB50
S3158080502001204AE20050A0E10610A0E130009FE511
S31580805030062082E00530A0E1820F00EB030057E373
S315808050400400000A0C0094E50010A0E31020A0E381
S315808050509F6600EB005080E50000A0E3F084BDE809
S31580805060FC30838089B68280040052E3F8402DE943
S315808050700340A0E10100000AF840BDE8410E00EA45
S31580805080000093E50210A0E1B60E00EB005050E2DE
S31580805090250000BA98609FE50010A0E31020A0E369
S315808050A0040094E58A6600EB007096E50010A0E324
S315808050B01020A0E3077080E0080094E5846600EB0A
S315808050C0006096E51020A0E30010A0E3066080E0F3
S315808050D00C0094E57E6600EB002050E20630A0113D
S315808050E0070066100C00001A48009FE5490F00EB08
S315808050F00D0000EA040055E3031090070010830535
S315808051000400000A020055E3B31090010310D01703
S31580805110B010C3010010C315053083E0012052E230
S31580805120F3FFFF2A0000A0E3F880BDE80100A0E33A
S31580805130F880BDE8FC308380AEB68280040052E37E
S31580805140F7402DE90350A0E10200000A0CD08DE2E1
S31580805150F040BDE80B0E00EA000093E50210A0E166
S31580805160800E00EB004050E20140A0B34D0000BAB3
S315808051703C619FE50010A0E3040095E51020A0E344
S31580805180536600EB007096E50010A0E31020A0E344
S31580805190077080E0080095E54D6600EB006096E537
S315808051A00010A0E31020A0E3066080E00C0095E567
S315808051B0476600EB0050A0E30630A0E107E066E09A
S315808051C00710A0E1066067E0210000EA040054E34E
S315808051D00800001A002091E500C093E50C0052E19A
S315808051E01800000A00C08DE50140A0E3C4009FE559
S315808051F0140F00EB200000EA020054E30800001A36
S31580805200B020D1E1B0C0D3E10C0052E10D00000A9C
S3158080521000C08DE50140A0E39C009FE5090F00EB6F
S31580805220170000EA0320DEE701C0D6E70C0052E1D2
S315808052300400000A00C08DE50140A0E37C009FE564
S31580805240000F00EB090000EA015085E2041081E03E
S31580805250043083E0000055E1DBFFFF1A040054E34D
S315808052600400000A020054E30040A0E30400000A20
S315808052704C209FE5030000EA0040A0E344209FE5A0
S31580805280000000EA40209FE540C09FE5010055E38D
S315808052903C309FE50510A0E138009FE50C30A011D9
S315808052A0E80E00EBFFFFFFEA0400A0E10CD08DE260
S315808052B0F080BDE8FC308380CDB6828005B7828061
S315808052C043B78280BFB68280C8B68280C4B6828069
S315808052D067E082804BB6828079B78280F0442DE900
S315808052E00350A0E1033042E202A0A0E1010053E333
S315808052F00100009AF044BDE8A20D00EA000095E521
S315808053000410A0E3170E00EB006050E21E0000DA66
S315808053100010A0E31020A0E3040095E5EC6500EB87
S315808053206C309FE50010A0E31020A0E3004093E559
S31580805330044080E0080095E5E56500EB04005AE3CB
S315808053400070A0E10100A0130B00001A0C0095E507
S315808053500010A0E31020A0E3DD6500EB060000EAE4
S31580805360040056E3007084050200000A020056E3BA
S31580805370B070C4010070C415064084E0010050E21C
S31580805380F6FFFF2A0000A0E3F084BDE80100A0E3D9
S31580805390F084BDE8FC308380F7462DE9019011E2E8
S315808053A028719FE50060A0E102A0A0E10C4097E50E
S315808053B0105097E50B00001A000092E50410A0E3D8
S315808053C0E80D00EB005050E20100A0B33E0000BA29
S315808053D004009AE50910A0E11020A0E3BC6500EBEB
S315808053E0004097E5044080E0E4709FE50410A0E1EA
S315808053F0E0009FE5930E00EB040055E3D8009F05FF
S31580805400001094050400000A020055E3CC009F0535
S31580805410B010D401C8009F150010D415890E00EBFA
S31580805420C0009FE5971F00EB000050E32300000A31
S31580805430010050E30800001A0030D7E52D0053E3C1
S315808054400500001A1A0000EA003065E2000000EAD2
S315808054500530A0E1034084E0E3FFFFEA70009FE52A
S3158080546004108DE21020A0E3996500EB04309DE561
S31580805470073053E00900000A040055E300008405E4
S315808054800200000A020055E3B000C4010000C41582
S31580805490000056E305408410000053E3D2FFFF1AD4
S315808054A028309FE50000A0E30C4083E5105083E51B
S315808054B0050000EA000056E3E2FFFF1ACAFFFFEA12
S315808054C0000056E3E1FFFF1AC7FFFFEAFE86BDE8CC
S315808054D0FC308380D0348380EEAD82806CE682809F
S315808054E09AB7828068AD828024AE8280020052E341
S315808054F00000000A230D00EA0000A0E30320A0E15B
S31580805500A4FFFFEA020052E30000000A1D0D00EAB4
